:10000000CEEF02F0FFFFFFFF00010B6A0A6A096AE8
:10001000086A0E6A033408360450085E0550D8A0FA
:10002000053C095E0650D8A0063C0A5E0750D8A0E1
:10003000073C0B5EE86AD8A0010E0E5E0336070E81
:100040000C6E0334083609360A360B360E36045069
:1000500003A03EEF00F0085E0550D8A0053C095E05
:100060000650D8A0063C0A5E0750D8A0073C0B5E9D
:10007000E86AD8A0010E0E5E4FEF00F0082605508A
:10008000D8B0053C09260650D8B0063C0A260750D1
:10009000D8B0073C0B26E86AD8B0010E0E2603360E
:1000A0000C2E21EF00F00234083609360A360B36E2
:1000B0000E36045003A070EF00F0085E0550D8A083
:1000C000053C095E0650D8A0063C0A5E0750D8A041
:1000D000073C0B5EE86AD8A0010E0E5E81EF00F0CF
:1000E00008260550D8B0053C09260650D8B0063C75
:1000F0000A260750D8B0073C0B26E86AD8B0010E94
:100100000E260236070E0C6E0234083609360A3601
:100110000B360E36045002A0A1EF00F0085E055029
:10012000D8A0053C095E0650D8A0063C0A5E0750E0
:10013000D8A0073C0B5EE86AD8A0010E0E5EB2EFB5
:1001400000F008260550D8B0053C09260650D8B066
:10015000063C0A260750D8B0073C0B26E86AD8B000
:10016000010E0E2602360C2E84EF00F00134083604
:1001700009360A360B360E36045002A0D3EF00F0D3
:10018000085E0550D8A0053C095E0650D8A0063C84
:100190000A5E0750D8A0073C0B5EE86AD8A0010EA3
:1001A0000E5EE4EF00F008260550D8B0053C0926A5
:1001B0000650D8B0063C0A260750D8B0073C0B269C
:1001C000E86AD8B0010E0E260136070E0C6E013417
:1001D000083609360A360B360E36045001A004EFF5
:1001E00001F0085E0550D8A0053C095E0650D8A075
:1001F000063C0A5E0750D8A0073C0B5EE86AD8A010
:10020000010E0E5E15EF01F008260550D8B0053C32
:1002100009260650D8B0063C0A260750D8B0073C3D
:100220000B26E86AD8B0010E0E2601360C2EE7EF39
:1002300000F00034083609360A360B360E36045004
:1002400001A036EF01F0085E0550D8A0053C095E1C
:100250000650D8A0063C0A5E0750D8A0073C0B5EAB
:10026000E86AD8A0010E0E5E47EF01F0082605509F
:10027000D8B0053C09260650D8B0063C0A260750DF
:10028000D8B0073C0B26E86AD8B0010E0E2600361F
:10029000070E0C6E0034083609360A360B360E3659
:1002A000045000A067EF01F0085E0550D8A0053C9F
:1002B000095E0650D8A0063C0A5E0750D8A0073C4D
:1002C0000B5EE86AD8A0010E0E5E78EF01F00826FA
:1002D0000550D8B0053C09260650D8B0063C0A2681
:1002E0000750D8B0073C0B26E86AD8B0010E0E269E
:1002F00000360C2E4AEF01F000B08DEF01F00450F3
:1003000008260550D8B0053C09260650D8B0063C52
:100310000A260750D8B0073C0B26120000010450F3
:10032000085E0550D8A0053C095E0650D8A0063CE2
:100330000A5E0750D8A0073C0B5E0336070E0C6E12
:100340000334083609360A360B36045003A0B8EFDA
:1003500001F0085E0550D8A0053C095E0650D8A003
:10036000063C0A5E0750D8A0073C0B5EC5EF01F0C3
:1003700008260550D8B0053C09260650D8B0063CE2
:100380000A260750D8B0073C0B2603360C2EA0EFE8
:1003900001F00234083609360A360B36045003A041
:1003A000E1EF01F0085E0550D8A0053C095E06505B
:1003B000D8A0063C0A5E0750D8A0073C0B5EEEEFC3
:1003C00001F008260550D8B0053C09260650D8B0E3
:1003D000063C0A260750D8B0073C0B260236070E0B
:1003E0000C6E0234083609360A360B36045002A069
:1003F00009EF02F0085E0550D8A0053C095E0650E2
:10040000D8A0063C0A5E0750D8A0073C0B5E16EF4A
:1004100002F008260550D8B0053C09260650D8B091
:10042000063C0A260750D8B0073C0B2602360C2E95
:10043000F1EF01F00134083609360A360B36045064
:1004400002A032EF02F0085E0550D8A0053C095E1C
:100450000650D8A0063C0A5E0750D8A0073C0B5EA9
:100460003FEF02F008260550D8B0053C092606509B
:10047000D8B0063C0A260750D8B0073C0B260136F8
:10048000070E0C6E0134083609360A360B36045056
:1004900001A05AEF02F0085E0550D8A0053C095EA5
:1004A0000650D8A0063C0A5E0750D8A0073C0B5E59
:1004B00067EF02F008260550D8B0053C0926065023
:1004C000D8B0063C0A260750D8B0073C0B260136A8
:1004D0000C2E42EF02F00034083609360A360B368D
:1004E000045001A083EF02F0085E0550D8A0053C3F
:1004F000095E0650D8A0063C0A5E0750D8A0073C0B
:100500000B5E90EF02F008260550D8B0053C092696
:100510000650D8B0063C0A260750D8B0073C0B2638
:100520000036070E0C6E0034083609360A360B36D4
:10053000045000A0ABEF02F0085E0550D8A0053CC7
:10054000095E0650D8A0063C0A5E0750D8A0073CBA
:100550000B5EB8EF02F008260550D8B0053C09261E
:100560000650D8B0063C0A260750D8B0073C0B26E8
:1005700000360C2E93EF02F000B0CDEF02F00450E5
:1005800008260550D8B0053C09260650D8B0063CD0
:100590000A260750D8B0073C0B26120086EC06F05E
:1005A000EA0E336E000E346E356E366E936A0E0EA2
:1005B000C16E816A92809494CA90CA92CA80630E76
:1005C000CB6E6DEC07F068EC07F0810E0001616FF7
:1005D0000F0E626F3FEC05F0010E0001606FB9EC89
:1005E00005F0010E0001616F030E626F24C063F01D
:1005F00025C064F006EC06F0020E616F010E626F1A
:100600002DC063F02EC064F006EC06F0020E616FA0
:100610000C0E626F31C063F032C064F006EC06F07D
:10062000CA90CA92CA80630ECB6E6DEC07F068EC7C
:1006300007F05F6A1CEC07F000C037F001C038F02B
:10064000000E396E3A6E37C000F038C001F039C084
:1006500002F03AC003F0190E046E000E056E066E2D
:10066000076EEEEC06F0640E046E000E056E066E6C
:10067000076E04EC00F000C037F001C038F002C093
:1006800039F003C03AF000C03BF001C03CF002C0BA
:100690003DF003C03EF000C05FF04EEC06F037C006
:1006A00061F038C062F039C063F03AC064F03F0EC8
:1006B0000001656F000E666FD2EC03F04B6A4C6A66
:1006C0004D6A4E6A4F6A506A516A526A5250000827
:1006D00008E15150000805E15050000802E14F5078
:1006E0000B085DE33F0E4F24E96E000E5020EA6ECA
:1006F000EECF04F00450200A16E0530E4B24E16EB6
:10070000000E4C20E26E3F0E4F24E96E000E50208A
:10071000EA6EEECF00F000C0E6FF010E4B26000EA1
:100720004C224D224E22000E3E5C08E1000E3D5C44
:1007300005E1000E3C5C02E10A0E3B5C04E2200E87
:10074000546E200E556E3E50000808E13D500008E2
:1007500005E13C50000802E13B500A080EE2000EA1
:100760003E5C08E1000E3D5C05E1000E3C5C02E1F0
:10077000640E3B5C02E2200E556E020E0001616FBA
:10078000080E626F530E636F000E646F06EC06F086
:10079000010E4F26000E50225122522297D70001FF
:1007A00048D7FFD700016C6B61C067F062C068F08A
:1007B00063C069F064C06AF0800E6419006E800E38
:1007C000005C08E1000E635D05E1000E625D02E180
:1007D000000E615D0EE2010E6C6F676B686B696BFA
:1007E0006A6B6151675F6251685B6351695B645119
:1007F0006A5B0001010E6B6F61516211631164113C
:100800001AE00A0E046E000E056E066E076E61C0D9
:1008100000F062C001F063C002F064C003F093EC2A
:1008200004F000C061F001C062F002C063F003C0D8
:1008300064F06B2BE1D76B07000E006E6A1908E1BC
:100840000050691905E10050681902E16751000A7A
:1008500002E1010E6B6F000165C0E9FF66C0EAFFAF
:10086000200EEE6E200EEE6E200EEE6E200EEE6E60
:10087000200EEE6E200EEE6E200EEE6E200EEE6E50
:10088000200EEE6E200EEE6E200EEE6EED6A6B51B7
:10089000000844E20A0E046E000E056E066E076E36
:1008A00067C000F068C001F069C002F06AC003F0E0
:1008B00093EC04F008C000F009C001F00AC002F097
:1008C0000BC003F000C0EFFFEFCF04F0000E056E89
:1008D000066E076E67C000F068C001F069C002F0E4
:1008E0006AC003F00450005E0550015A0650025AD7
:1008F0000750035A0A0E046E000E056E066E076E50
:1009000093EC04F000C067F001C068F002C069F029
:1009100003C06AF0300EED266B07B9D76C5302E0C6
:100920002D0EEF6E120000010C6A07BE0C2A0D6A34
:100930000B6A0A6A096A086A035002100110001063
:10094000D8B437EF05F0035007180E6E0EBE0D1E1B
:1009500007AEB6EF04F0041E051E061E071E042A8D
:10096000D8B4052AD8B4062AD8B4072A03AEC4EFEF
:1009700004F0001E011E021E031E002AD8B4012A24
:10098000D8B4022AD8B4032A035007100E6E0EBE44
:10099000EAEF04F08EEC01F00CBE0BEF05F00DAEAB
:1009A00037EF05F0001E011E021E031E002AD8B4F8
:1009B000012AD8B4022AD8B4032A081E091E0A1E26
:1009C0000B1E082AD8B4092AD8B40A2AD8B40B2A8C
:1009D00037EF05F007AE04EF05F003BEFEEF04F0BD
:1009E00003500B6E02500A6E0150096E0050086EE3
:1009F000036A026A016A006ACFEF04F0036A026ABE
:100A0000016A006A002A000C031E021E011E001E5D
:100A10000C8ECAEF04F0082AD8B4092AD8B40A2ADE
:100A2000D8B40B2A0450085CD8A4CFEF04F00550CA
:100A3000095CD8A4CFEF04F006500A5CD8A4CFEF2D
:100A400004F007500B5CD8A4CFEF04F00B6A0A6ADD
:100A5000096A086A002AD8B4012AD8B4022AD8B48C
:100A6000032A03AECFEF04F00E6A0E88FF0C0E6A65
:100A70000CA03DEF05F050EC07F0000F120061C034
:100A800015F062C016F015C0E1FF16C0E2FF120EAD
:100A9000E126E796E794E790E79EE79CE79AE798D8
:100AA000120EE15EE796E794E790E79EE79CE79AEF
:100AB000E79841EC07F0E78AE788E78671EC07F0F2
:100AC000E79641EC07F0E78AE788E78671EC07F0E4
:100AD000E79663EC07F063EC07F0E78AE788E786C0
:100AE00071EC07F0E79641EC07F0E78AE798E786B4
:100AF00071EC07F0E79663EC07F0E78AE798E78682
:100B000071EC07F0E796E78EE79CE78671EC07F05B
:100B1000E79663EC07F0000EE76EE78671EC07F0EE
:100B2000E796E78EE78CE78AE788E78671EC07F0BF
:100B3000E79663EC07F0000EE76EE78671EC07F0CE
:100B4000E796E788E78671EC07F0E79641EC07F057
:100B5000000EE76EE78671EC07F0E796E78CE78A10
:100B6000E78671EC07F0E79663EC07F0010E176E6D
:100B7000120015C000F016C001F000C015F001C051
:100B800016F015C0E9FF16C0EAFF0001605300E04F
:100B9000EF96EF94EF9EEF9CEF9AEF9860BFEF8E89
:100BA00060BDEF8C60BBEF8A60B9EF881750010A17
:100BB00002E1EF9402D00001EF84EF8671EC07F0C0
:100BC0000001605300E0EF96EF94EF9EEF9CEF9AE8
:100BD000EF9860B7EF8E60B5EF8C60B3EF8A60B1CD
:100BE000EF881750010A02E1EF9402D00001EF8470
:100BF0000001EF8671EC07F0EF961750010A03E150
:100C000041EC07F002D063EC07F0120010D0800E28
:100C10000001616F1AD0C00E616F17D0940E616F22
:100C200014D0D40E616F11D0800E616F0ED0000110
:100C30006151010AECE06151020AEDE06151030AE1
:100C4000EDE06151040AEDE0EFD76205006E6151FD
:100C5000002600C061F000C060F0B9EC05F0176A32
:100C60000001656B666B65516325E96E6651642111
:100C7000EA6EEECF00F000520EE065516325E96E9A
:100C800066516421EA6EEECF60F0B9EC05F0000128
:100C9000654B662BE8D7010E176E1200CB50010F83
:100CA000006E016A000E01225FC004F0000E056EA6
:100CB000BAEC06F0060E026E00C004F001C005F0AA
:100CC0000250000105E005320432059EFF0FF9D7FE
:100CD00004C000F00036009000360090003600900E
:100CE00000360090300E0014036E04C000F005C002
:100CF00001F001320032019E01320032019E00C03B
:100D0000BEFF0F0EBD160350BD121200500E186E1E
:100D1000570E196E4D0E1A6E200E1B6E410E1C6E74
:100D2000540E1D6E200E1E6E350E1F6E6B0E206E45
:100D3000480E216E5A0E226E236A180E246E000E83
:100D4000256E440E266E550E276E540E286E590ED3
:100D5000296E200E2A6E3D0E2B6E2C6A260E2D6EED
:100D6000000E2E6E250E2F6E306A2F0E316E000E85
:100D7000326E1200000100500402F4CF09F0F3CFEC
:100D800008F001500502F4CF0BF0F3CF0AF0005049
:100D90000502F3500926F4500A22E86A0B2201509A
:100DA0000402F3500926F4500A22E86A0B2205AE29
:100DB000DEEF06F000500A5C01500B5801AEE5EF83
:100DC00006F004500A5C05500B5808C000F009C03A
:100DD00001F00AC002F00BC003F012000001220E65
:100DE0000C6E086A096A0A6A0B6A0C06D8B41BEF13
:100DF00007F0D8900B320A3209320832033202323D
:100E000001320032D8A0F5EF06F00C06D8B413EF8B
:100E100007F0045008260550092206500A22075000
:100E20000B22FAEF06F0045008260550092206505E
:100E30000A2207500B221200C26A070EC012C08E8F
:100E40005FC000F000360090003600900050C212E3
:100E5000C2805DEC07F0C282C2B2FED7080E026EFD
:100E6000C4CF00F0000E016E025005E00036009085
:100E70000136FF0FFAD7C3500012000E0112C290C4
:100E800012000F0E0B6EFF0E0A6E0B2E01D003D058
:100E90000A2EFED7FAD73E0E0A6E0A2EFED7120091
:100EA00000010B1E0A1E091E081E082AD8B4092AB2
:100EB000D8B40A2AD8B40B2A12000E0E0A6E0A2ED3
:100EC000FED700001200210E0A6E0A2EFED7120075
:100ED0009494CA840C0EBD121200BE6ABD98BD9ACD
:100EE0001200000000001200FFFFFFFFFFFFFFFFE6
:020000040030CA
:0E000000FFF8FFFEFFFFBBFFFFFFFFFFFFFF4C
:00000001FF
